:100000000C9434000C9451000C9451000C94510049
:100010000C9451000C9451000C9451000C948505E3
:100020000C9451000C9451000C9451000C9451000C
:100030000C9451000C9451000C9486050C945100C2
:100040000C9451000C9451000C9451000C945100EC
:100050000C9451000C9451000C9451000C945100DC
:100060000C9451000C94510011241FBECFEFD8E026
:10007000DEBFCDBF11E0A0E0B1E0E4EAF6E102C0EE
:1000800005900D92A630B107D9F721E0A6E0B1E0C6
:1000900001C01D92A331B207E1F70E94B6050C948E
:1000A000500B0C940000CF93DF930F92CDB7DEB7C7
:1000B0000E943A020E94480260E070E089E20E94D9
:1000C0005C0280EC0E94AC020E94D4020E944802B2
:1000D00061E070E089E20E945C020E94CA028983AA
:1000E0000E94D40281E099819E3E09F080E00F9049
:1000F000DF91CF9108959C016130710590F009F571
:1001000044E1429FC001439F900D112469E070E0DB
:100110000E940E0669517C4F70938B0060938A0099
:10012000089544E1429FC001439F900D112469E06E
:1001300070E00E940E0669517C4F709389006093B5
:1001400088000895EF92FF920F931F93CF93DF9350
:100150008C01EB01BC0180E090E00E947B00BE01BD
:1001600080E090E00E947B002FEF83ED90E3215030
:1001700080409040E1F700C00000E12CF12CB80174
:10018000C7010E947B00BE01C7010E947B008FE96E
:100190009FE00197F1F700C000009FEFE91AF90A0C
:1001A00029E0E21627E0F20651F788E0E82E87E022
:1001B000F82EB801C7010E947B00BE01C7010E9452
:1001C0007B008FE99FE00197F1F700C0000091E00C
:1001D000E91AF10870F7B80180E090E00E947B0016
:1001E000BE0180E090E00E947B00B80188E097E0CB
:1001F0000E947B00BE0188E097E00E947B008FEFA9
:1002000093ED20E3815090402040E1F700C00000D2
:10021000B80180E090E00E947B00BE0180E090E0A9
:100220000E947B008FEF93ED20E3815090402040AF
:10023000E1F700C00000DF91CF911F910F91FF9077
:10024000EF9008950E943A020E944802079729F011
:100250000E94D40280E090E0089560E070E082E5C2
:100260000E945C02079729F00E94D40282E090E08D
:10027000089580E40E94AC02079729F00E94D402FE
:1002800083E090E0089580E00E94AC020797B1F708
:100290000E94D40285E090E00895EF92FF920F93C0
:1002A0001F93CF93DF93EC010E944802079759F008
:1002B0000E94D40281E090E0DF91CF911F910F91D5
:1002C000FF90EF90089560E070E082E50E945C028C
:1002D000079729F00E94D40282E090E0EDCF80E001
:1002E0000E94AC02079729F00E94D40283E090E0BC
:1002F000E3CF0E9448020797D9F661E070E082E5FB
:100300000E945C02079731F78E017E0185E0E80EBE
:10031000F11C0E94C002F80181938F01EE15FF05C8
:10032000C1F70E94CA028D830E94D40285E090E04A
:10033000C3CFCF93DF93CDB7DEB728970FB6F8942E
:10034000DEBF0FBECDBF8F839887CE0101960E947E
:100350004D018981EF81F88580838A81818385E0E1
:1003600090E028960FB6F894DEBF0FBECDBFDF91A8
:10037000CF910895CF93DF93CDB7DEB728970FB60F
:10038000F894DEBF0FBECDBF8F839887CE01019654
:1003900026E0FC0111922A95E9F70E944D018E8119
:1003A0008370EF81F885808385E090E028960FB612
:1003B000F894DEBF0FBECDBFDF91CF91089582E0EC
:1003C0008093C0001092C50080E18093C40088E152
:1003D0008093C10086E08093C20008959091C00090
:1003E00095FFFCCF8093C60008958091C00087FFE1
:1003F000FCCF8091C6000895CF93DF93EC018881F4
:10040000811103C0DF91CF91089521960E94EE01E2
:10041000F6CF0F931F93CF93DF93CDB7DEB72A9715
:100420000FB6F894DEBF0FBECDBF9F938F9380E0D1
:1004300091E09F938F938E010F5F1F4F1F930F9338
:100440000E945808C8010E94FC0183E091E00E94CC
:10045000FC010F900F900F900F900F900F902A9625
:100460000FB6F894DEBF0FBECDBFDF91CF911F91C5
:100470000F91089587B18F7C87B91092B90088E4F5
:100480008093B80084E08093BC0087E090E00895FA
:1004900084EA8093BC008091BC0087FFFCCF8091F0
:1004A000B900887F883011F0803119F487E090E03E
:1004B000089581E090E00895880F862B8093BB001B
:1004C00084E88093BC008091BC0087FFFCCF8091C2
:1004D000B900887F672B31F4883149F42D9A87E081
:1004E00090E008958034D1F384E090E0089585E0B1
:1004F00090E008950F931F93CF93DF938C010097A3
:1005000011F0FC011082259A2D98C8E0D4E90E94D0
:100510004802079741F0D093BC00CF5FC837B9F7C6
:1005200086E090E014C060E070E08C2F0E945C02D6
:100530008730910581F724E92093BC00011511054E
:1005400011F0F801C08325B130E2232725B9DF91EE
:10055000CF911F910F9108958093BB0084E8809301
:10056000BC008091BC0087FFFCCF8091B900887FE0
:10057000883219F083E090E0089587E090E00895D4
:1005800084EC8093BC008091BC0087FFFCCF8091FD
:10059000BB00089584E88093BC008091BC0087FF75
:1005A000FCCF8091BB00089584E98093BC0008953E
:1005B00088E198E00FB6F894A895809360000FBE8C
:1005C00090936000FFCF82E084BD93E095BD99EFEA
:1005D00097BD16BC80936E00089585E480937C00DF
:1005E00087E880937A0082E08093B00094E0909353
:1005F000B10099EF9093B300809370001092B20015
:10060000089580917A00806480937A0080917A00C6
:1006100084FFFCCF80917A00806180937A006091A2
:1006200078007091790080E090E00E94370726EF13
:1006300038E24CE950E40E94C5070E940807CB014C
:100640000895FF920F931F93CF93DF93EC010CE774
:1006500010E0F80110820E9401038A839B838FE3DC
:100660009FE10197F1F700C00000FF24F394F80127
:10067000F0820E940103888399838FE39FE10197B1
:10068000F1F700C0000082E0F80180830E940103BE
:100690008C839D838FE39FE10197F1F700C00000F9
:1006A00083E0F80180830E9401038E839F838FE3A0
:1006B0009FE10197F1F700C0000084E0F80180831A
:1006C0000E940103888799878FE39FE10197F1F7E3
:1006D00000C00000F801F0820E9401038A879B8716
:1006E0008FE39FE10197F1F700C00000DF91CF9108
:1006F0001F910F91FF900895BC0180E090E00E944F
:10070000370720E030E04AE756E40E94C50720E0C2
:1007100030E44CE955E40E948F0620E030E040E8E8
:100720005FE30E9422060E940807CB0108958830EB
:10073000D0F44AB121E030E0B90101C0660F8A95DA
:10074000EAF7862F962F909594239AB99BB1962B12
:100750009BB99091680094609093680090916D00AF
:10076000892B80936D0080E090E00895219A229A71
:1007700022EA209380002AE12093810040ED57E097
:10078000849F9001859F300D949F300D112421503E
:1007900031093093870020938600109289001092CF
:1007A000880008959C014091860050918700429FE7
:1007B000C001439F900D529F900D112464E670E09C
:1007C0000E940E0670938900609388000895259A10
:1007D000089585B190E2892785B908952D9A0895E5
:1007E0002D980895CF93DF93CDB7DEB72A970FB634
:1007F000F894DEBF0FBECDBF6D837E838F83988755
:1008000020910A0130910B0129873A872D813E8181
:10081000B901330F880B982F0E9439072DEC3CEC5F
:100820004CEC5DE30E94C50769837A838B839C83CC
:1008300029853A85B901330F880B982F0E94390713
:100840009B01AC0169817A818B819C810E94230686
:100850000E94010770930B0160930A0160910801E7
:1008600070910901872F880F880B982F0E943907F4
:1008700069837A838B839C832F813885B901330FF9
:10088000880B982F0E9439072DEC3CEC4CEC5DE373
:100890000E94C5079B01AC0169817A818B819C8193
:1008A0000E9422060E9401077093090160930801CB
:1008B0002A960FB6F894DEBF0FBECDBFDF91CF9161
:1008C0000895FF920F931F93CF93DF93CDB7DEB7B9
:1008D00028970FB6F894DEBF0FBECDBF0E94F5017A
:1008E0008C33E1F710E00E94F5018C3241F01730B3
:1008F000D1F3FE01E10FF11D81831F5FF4CFFE01F3
:100900003196E10FF11D1082CE0101960E9432084E
:100910008C01F12C0E94F5018E3351F097E0F9160D
:10092000C9F3FE013196EF0DF11D8083F394F2CFF0
:10093000FE013196EF0DF11D1082CE0101960E944D
:100940003208B80128960FB6F894DEBF0FBECDBFAF
:10095000DF91CF911F910F91FF9008950F931F93F7
:10096000CF938C016630710508F47CC0FC01858151
:10097000CC2781FFC395C093060180FD08C081E0AC
:1009800090E090930F0180930E010E94E903CE5FE7
:100990002091080130910901F80181818058990B5B
:1009A0000C2E02C0959587950A94E2F7820F931F4B
:1009B00090930901809308018091080190910901A9
:1009C00097FF34C0109209011092080120910A018A
:1009D00030910B01F80180818058990B02C09595E8
:1009E0008795CA95E2F7281B390B30930B012093AA
:1009F0000A0180910A0190910B0197FF25C0109286
:100A00000B0110920A0180910A0190910B0160E0A4
:100A100070E00E947B00809108019091090161E0E3
:100A200070E0CF911F910F910C947B008091080191
:100A300090910901843893404CF283E893E09093BD
:100A4000090180930801C2CF80910A0190910B01A6
:100A500088309740C4F287E097E090930B01809331
:100A60000A01D1CFCF911F910F9108956630710582
:100A700008F44AC0FC01858180FF06C010920F0176
:100A800010920E010E94E9038091080190910901E2
:100A900097FF1EC0109209011092080180910A016F
:100AA00090910B0197FF22C010920B0110920A0146
:100AB00080910A0190910B0160E070E00E947B0040
:100AC000809108019091090161E070E00C947B0035
:100AD000809108019091090184389340FCF283E8E9
:100AE00093E09093090180930801D8CF80910A0187
:100AF00090910B0188309740DCF287E097E090936B
:100B00000B0180930A01D4CF089518951F921FB648
:100B10001F9211242F938F939F9380911101909195
:100B200012010196883E23E0920790F48093110110
:100B300090931201809110018F5F843188F480932B
:100B400010019F918F912F911F901FBE1F9018959C
:100B5000109211011092120181E080930C01EACFF2
:100B60001092100181E080930D01EBCF00D000D0F6
:100B700000D0CDB7DEB70E94E7030E94EE030E94CB
:100B80003A020E942201059761F50E94DF010E944E
:100B9000E30284E190E00E94B6030E94F00378949F
:100BA00080910C01811110920C0180910E019091A5
:100BB0000F01019710F1A1F780910D01811581F3CB
:100BC00010920D010E9461040E94F203CE01019671
:100BD0000E944D0166E070E0CE0101960E9436054C
:100BE000DFCF2FEF80E792E0215080409040E1F787
:100BF00000C000000E94E903C4CF80910D0181155F
:100C000079F210920D01CE0101960E944D0166E02D
:100C100070E0CE0101960E94AE04C2CFAA1BBB1B9E
:100C200051E107C0AA1FBB1FA617B70710F0A61BEC
:100C3000B70B881F991F5A95A9F780959095BC010D
:100C4000CD0108955058BB27AA270E943A060C945C
:100C50008B070E947D0738F00E94840720F039F44A
:100C60009F3F19F426F40C947A070EF4E095E7FB05
:100C70000C947407E92F0E949C0758F3BA17620777
:100C800073078407950720F079F4A6F50C94BE0746
:100C90000EF4E0950B2EBA2FA02D0B01B901900197
:100CA0000C01CA01A0011124FF27591B99F0593FDB
:100CB00050F4503E68F11A16F040A22F232F342F23
:100CC0004427585FF3CF469537952795A795F04071
:100CD0005395C9F77EF41F16BA0B620B730B840B86
:100CE000BAF09150A1F0FF0FBB1F661F771F881F3E
:100CF000C2F70EC0BA0F621F731F841F48F4879596
:100D000077956795B795F7959E3F08F0B0CF939587
:100D1000880F08F09927EE0F9795879508950E9400
:100D2000A3060C948B070E94840758F00E947D074D
:100D300040F029F45F3F29F00C94740751110C9492
:100D4000BF070C947A070E949C0768F39923B1F3BC
:100D5000552391F3951B550BBB27AA2762177307E1
:100D6000840738F09F5F5F4F220F331F441FAA1F75
:100D7000A9F335D00E2E3AF0E0E832D09150504031
:100D8000E695001CCAF72BD0FE2F29D0660F771FDF
:100D9000881FBB1F261737074807AB07B0E809F0C5
:100DA000BB0B802DBF01FF2793585F4F3AF09E3F4A
:100DB000510578F00C9474070C94BF075F3FE4F37F
:100DC000983ED4F3869577956795B795F7959F5F8D
:100DD000C9F7880F911D9695879597F90895E1E0D9
:100DE000660F771F881FBB1F621773078407BA0738
:100DF00020F0621B730B840BBA0BEE1F88F7E09593
:100E000008950E9408076894B1110C94BF070895D3
:100E10000E94A40788F09F5798F0B92F9927B751DF
:100E2000B0F0E1F0660F771F881F991F1AF0BA958E
:100E3000C9F714C0B13091F00E94BE07B1E0089527
:100E40000C94BE07672F782F8827B85F39F0B93F19
:100E5000CCF3869577956795B395D9F73EF4909541
:100E60008095709561957F4F8F4F9F4F0895E894BF
:100E700009C097FB3EF490958095709561957F4FE2
:100E80008F4F9F4F9923A9F0F92F96E9BB27939590
:100E9000F695879577956795B795F111F8CFFAF4A0
:100EA000BB0F11F460FF1BC06F5F7F4F8F4F9F4FD1
:100EB00016C0882311F096E911C0772321F09EE82F
:100EC000872F762F05C0662371F096E8862F70E095
:100ED00060E02AF09A95660F771F881FDAF7880F6F
:100EE0009695879597F9089597F99F6780E870E040
:100EF00060E008959FEF80EC089500240A94161690
:100F0000170618060906089500240A9412161306F7
:100F1000140605060895092E0394000C11F4882385
:100F200052F0BB0F40F4BF2B11F460FF04C06F5FA1
:100F30007F4F8F4F9F4F089557FD9058440F551F77
:100F400059F05F3F71F04795880F97FB991F61F04B
:100F50009F3F79F087950895121613061406551FC2
:100F6000F2CF4695F1DF08C0161617061806991F2E
:100F7000F1CF86957105610508940895E894BB2723
:100F800066277727CB0197F908950E94D8070C941C
:100F90008B070E947D0738F00E94840720F095237C
:100FA00011F00C9474070C947A0711240C94BF0769
:100FB0000E949C0770F3959FC1F3950F50E0551F59
:100FC000629FF001729FBB27F00DB11D639FAA279E
:100FD000F00DB11DAA1F649F6627B00DA11D661FED
:100FE000829F2227B00DA11D621F739FB00DA11D0E
:100FF000621F839FA00D611D221F749F3327A00DC8
:10100000611D231F849F600D211D822F762F6A2F63
:1010100011249F5750409AF0F1F088234AF0EE0FC8
:10102000FF1FBB1F661F771F881F91505040A9F7F5
:101030009E3F510580F00C9474070C94BF075F3FEE
:10104000E4F3983ED4F3869577956795B795F79531
:10105000E7959F5FC1F7FE2B880F911D96958795A9
:1010600097F90895FC0188279927E8942191203267
:10107000E9F3293010F02E30C8F32B3241F02D3235
:1010800039F4689404C00E945008820F911D219188
:1010900020532A30C0F31EF4909581959F4F0895F8
:1010A0007AE0979F902D879F802D910D11240895B0
:1010B000AEE0B0E0EEE5F8E00C94290B86E08C831E
:1010C0002B893C8929833A838FEF9FE78D839E8309
:1010D000AE01495E5F4F6D897E89CE0101960E9407
:1010E0007C08EF81F8852B893C89E20FF31F108281
:1010F0002E96E2E00C94450BABE0B0E0E2E8F8E0BD
:101100000C941C0B6C017B018A01FC011682178276
:10111000838181FFDFC13AE0532EF6012381F7017D
:1011200023FD859123FF81917F01811509F437C14A
:10113000853239F423FD959123FF91917F019532FA
:1011400029F4B60190E00E94830AE7CF30E0912CA9
:10115000612C712CF0E27F1640F59B32D9F058F4E7
:101160009032D1F09332F1F09E3291F576FC17C1B6
:10117000689476F806C09D3291F09033C1F468947B
:1011800070F8F70123FD959123FF91917F01911153
:10119000E1CF28C0689471F8689472F8F2CF68942F
:1011A00073F8EFCF689474F8ECCF77FC1BC080ED38
:1011B000890F8A30C8F676FE05C0959C800D1124F3
:1011C000982EDFCF659C800D1124682E7F2AD9CF01
:1011D0009C3619F4689477F8D4CF9C3409F445C050
:1011E000983679F2892F8F7D8554833008F43FC07B
:1011F000933609F461C0933709F46BC0933509F451
:1012000077C0943619F0993609F0A4C0F80177FE3A
:101210009AC061917191819191918F01272D2F76C3
:10122000822E97FF04C00E94110B689487F82AE071
:1012300030E05E014FEFA41AB40AA5010E94B30A80
:10124000782E7A1886FECFC0882D8E7F791408F00C
:10125000C9C084FE1DC182FC11C12EEE8222B92CB0
:10126000882D867809F4CBC00EC131E08ACF3115C4
:1012700001F1085F1F4F8FE3898321E0822E912CBB
:101280005E012FEFA21AB20AE89477F873FC03C04C
:1012900086149104F0F18114910409F041C06114A5
:1012A00009F43BCFB60180E290E00E94830A6A9481
:1012B000F6CF0C5F1F4FDFCFF801808189830E5F6F
:1012C0001F4F91E0892E912C5E01FFEFAF1ABF0AEC
:1012D000DBCFF801A190B1908F01692D70E076FC11
:1012E00002C06FEF7FEFC5010E94780A4C01CCCF9E
:1012F000F801A190B1908F01692D70E076FC02C0D9
:101300006FEF7FEFC5010E946D0A4C01689477F87A
:10131000BDCFB60180E290E00E94830A6A94B8CF04
:10132000F50177FC859177FE81915F01B60190E030
:101330000E94830A81E0611001C080E0681AF1E038
:101340008F1A9108A8CF61917191872F880F880B10
:10135000982F63CF9537C9F4872CE89484F82AE056
:1013600030E0F80187FE39C06191719181919191CE
:101370008F015E01FFEFAF1ABF0AA5010E94B30AF9
:10138000782E7A18E89487F85DCF872D897F882E8C
:10139000903799F058F49835A9F09F36D9F0F601B6
:1013A000868197812B96EFE00C94380B9837B9F72C
:1013B00074FC05C020E130E0D4CF689484F86894D0
:1013C00082F8F8CF74FE03C0E72DE6608E2E20E190
:1013D00032E0C7CF28E030E0C4CF6191719180E066
:1013E00090E0C6CF882EB72C84FE3ACFFE01E70DE1
:1013F000F11D8081803309F044C049EE842283FCD2
:101400000EC080FE51C0972CB61418F4960C9B1891
:10141000B62C862D8B196B1408F480E0B80EB61428
:1014200008F044C06B1884FE43C0B60180E390E02E
:101430000E94830A82FE09C088E590E081FC02C018
:1014400088E790E0B6010E94830A7914E0F15E011A
:101450008FEFA81AB80A7A9482E0882E912C8C0E0D
:101460009D1E870C911CF40182914F01B60190E002
:101470000E94830A8A149B04B1F711CFB92C882EDD
:10148000B5CF82FC02C0B394BACFB394B394B7CFB4
:10149000B92C882EE5CEB60180E290E00E94830A46
:1014A000A394A614C0F3B5CFAB2CFBCF612CBBCF5C
:1014B000882D867851F280E281FC8BE287FC8DE2F8
:1014C000B60190E0C0CFB60180E390E00E94830AAD
:1014D0009A94BBCF8FEF9FEF65CFFC0105906150D1
:1014E00070400110D8F7809590958E0F9F1F08953A
:1014F000FC016150704001900110D8F780959095E3
:101500008E0F9F1F08950F931F93CF93DF93182F74
:10151000092FEB018B8181FD09C00FEF1FEF812F98
:10152000902FDF91CF911F910F91089582FF14C0EA
:101530002E813F818C819D81281739073CF4E881F9
:10154000F981CF0101968883998310838E819F81D1
:1015500001968E839F83E3CFE885F985812F0995D6
:10156000892BA1F3DACFFA01AA27283051F12031D3
:1015700081F1E8946F936E7F6E5F7F4F8F4F9F4F27
:10158000AF4FB1E03ED0B4E03CD0670F781F891F69
:101590009A1FA11D680F791F8A1F911DA11D6A0F37
:1015A000711D811D911DA11D20D009F468943F91EA
:1015B0002AE0269F11243019305D3193DEF6CF01E9
:1015C0000895462F4770405D4193B3E00FD0C9F7AF
:1015D000F6CF462F4F70405D4A3318F0495D31FD1C
:1015E0004052419302D0A9F7EACFB4E0A69597956F
:1015F000879577956795BA95C9F700976105710545
:1016000008959B01AC010A2E06945795479537958E
:101610002795BA95C9F7620F731F841F951FA01DE8
:10162000089590958095709561957F4F8F4F9F4F4E
:1016300008952F923F924F925F926F927F928F9276
:101640009F92AF92BF92CF92DF92EF92FF920F9351
:101650001F93CF93DF93CDB7DEB7CA1BDB0B0FB65B
:10166000F894DEBF0FBECDBF09942A883988488818
:101670005F846E847D848C849B84AA84B984C884AE
:10168000DF80EE80FD800C811B81AA81B981CE0FA5
:10169000D11D0FB6F894DEBF0FBECDBFED0108958A
:0416A000F894FFCFEC
:0616A4002564000D0A00A0
:00000001FF
