:100000000C9434000C9449000C945E030C94490049
:100010000C9449000C945A030C9449000C94590315
:100020000C9449000C9449000C9449000C9449002C
:100030000C9449000C9449000C945F030C94490003
:100040000C9449000C9449000C9449000C9449000C
:100050000C9449000C9449000C9449000C944900FC
:100060000C9449000C94490011241FBECFEFD8E036
:10007000DEBFCDBF11E0A0E0B1E0E8E3F1E102C0F6
:1000800005900D92A630B107D9F70E946B030C942E
:100090009A080C9400009C016130710590F009F5FC
:1000A00044E1429FC001439F900D112469E070E03C
:1000B0000E94850369517C4F70938B0060938A0086
:1000C000089544E1429FC001439F900D112469E0CF
:1000D00070E00E94850369517C4F709389006093A2
:1000E00088000895EF92FF920F931F93CF93DF93B1
:1000F0008C01EB01BC0180E090E00E944B00BE014E
:1001000080E090E00E944B002FEF83ED90E32150C0
:1001100080409040E1F700C00000E12CF12CB801D4
:10012000C7010E944B00BE01C7010E944B008FE92E
:100130009FE00197F1F700C000009FEFE91AF90A6C
:1001400029E0E21627E0F20651F788E0E82E87E082
:10015000F82EB801C7010E944B00BE01C7010E94E2
:100160004B008FE99FE00197F1F700C0000091E09C
:10017000E91AF10870F7B80180E090E00E944B00A6
:10018000BE0180E090E00E944B00B80188E097E05B
:100190000E944B00BE0188E097E00E944B008FEF69
:1001A00093ED20E3815090402040E1F700C0000033
:1001B000B80180E090E00E944B00BE0180E090E03A
:1001C0000E944B008FEF93ED20E381509040204040
:1001D000E1F700C00000DF91CF911F910F91FF90D8
:1001E000EF9008950E94F301069711F00E946003BA
:1001F0000E940102069711F00E94600360E070E027
:1002000084EA0E94130280EF0E94310285E50E9479
:1002100031020E9459020E940102069711F00E94C9
:10022000600360E070E084EA0E9413028BEF0E949A
:10023000310280E00E9431020E9459020E940102B4
:10024000069711F00E94600360E070E084EA0E946B
:10025000130280E00E9431020C945902EF92FF9247
:100260000F931F93CF93DF93EC010E940102069737
:1002700011F00E94600361E070E085EA0E941302C1
:100280008E017E0185E0E80EF11C0E944502F80116
:1002900081938F01EE15FF05C1F70E944F028D83F8
:1002A000DF91CF911F910F91FF90EF900C94590225
:1002B000CF93DF93CDB7DEB728970FB6F894DEBFA4
:1002C0000FBECDBF8F839887CE01019626E0FC013B
:1002D00011922A95E9F70E942E018A819981EF8176
:1002E000F8859083818328960FB6F894DEBF0FBE01
:1002F000CDBFDF91CF910895CF93DF9300D000D091
:1003000000D0CDB7DEB7CE0101960E942E018E81BE
:100310008C7F0F900F900F900F900F900F90DF91A8
:10032000CF9108951092C50087E68093C40088E1BC
:100330008093C10086E08093C20008959091C00030
:1003400095FFFCCF8093C60008958091C00087FF81
:10035000FCCF8091C6000895CF93DF93EC01888194
:10036000811103C0DF91CF91089521960E949E01D3
:10037000F6CF0F931F93CF93DF93CDB7DEB72A97B6
:100380000FB6F894DEBF0FBECDBF9F938F9380E072
:1003900091E09F938F938E010F5F1F4F1F930F93D9
:1003A0000E94A205C8010E94AC0183E091E00E9476
:1003B000AC012FEF89E698E1215080409040E1F7B1
:1003C00000C000000F900F900F900F900F900F90B3
:1003D0002A960FB6F894DEBF0FBECDBFDF91CF9146
:1003E0001F910F91089587B18F7C87B91092B90042
:1003F00088E48093B80084E08093BC0086E090E0BD
:10040000089584EA8093BC008091BC0087FFFCCFF4
:100410008091B900887F883019F486E090E00895D3
:1004200081E090E00895880F862B8093BB0084E8DC
:100430008093BC008091BC0087FFFCCF8091B90005
:10044000887F883141F48091B900887F883431F009
:1004500084E090E0089583E090E0089586E090E0E5
:1004600008958093BB0084E88093BC008091BC0019
:1004700087FFFCCF8091B900887F883219F082E035
:1004800090E0089586E090E0089584EC8093BC00AD
:100490008091BC0087FFFCCF8091BB00089584E869
:1004A0008093BC008091BC0087FFFCCF8091BB0093
:1004B000089584E98093BC00089585E480937C00CE
:1004C00087E880937A0082E08093B00094E0909374
:1004D000B10099EF9093B300809370001092B20036
:1004E000089580917A00806480937A0080917A00E8
:1004F00084FFFCCF80917A00806180937A006091C4
:1005000078007091790080E090E00E94A70426EFC7
:1005100038E24CE950E40E9435050E947804CB0192
:100520000895FF920F931F93CF93DF93EC010CE795
:1005300010E0F80110820E9471028A839B838FE38E
:100540009FE10197F1F700C00000FF24F394F80148
:10055000F0820E947102888399838FE39FE1019763
:10056000F1F700C0000082E0F80180830E94710270
:100570008C839D838FE39FE10197F1F700C000001A
:1005800083E0F80180830E9471028E839F838FE352
:100590009FE10197F1F700C0000084E0F80180833B
:1005A0000E947102888799878FE39FE10197F1F795
:1005B00000C00000F801F0820E9471028A879B87C8
:1005C0008FE39FE10197F1F700C00000DF91CF9129
:1005D0001F910F91FF900895BC0180E090E00E9470
:1005E000A70420E030E04AE756E40E94350520E009
:1005F00030E44CE955E40E94060420E030E040E895
:100600005FE30E9499030E947804CB01089588302B
:10061000D0F44AB121E030E0B90101C0660F8A95FB
:10062000EAF7862F962F909594239AB99BB1962B33
:100630009BB99091680094609093680090916D00D0
:10064000892B80936D0080E090E00895219A229A92
:1006500022EA209380002AE12093810040ED57E0B8
:10066000849F9001859F300D949F300D112421505F
:1006700031093093870020938600109289001092F0
:10068000880008959C014091860050918700429F08
:10069000C001439F900D529F900D112464E670E0BD
:1006A0000E94850370938900609388000895209AC2
:1006B000089518958F9389B18F911895189518956D
:1006C00088E198E00FB6F894A895809360000FBE7B
:1006D00090936000FFCF0E94F3010E94570378942B
:1006E000C1E00E94010260E070E082E50E94130216
:1006F00085B18C2785B92FEF8BE792E92150804097
:100700009040E1F700C00000ECCFAA1BBB1B51E1F9
:1007100007C0AA1FBB1FA617B70710F0A61BB70B71
:10072000881F991F5A95A9F780959095BC01CD0116
:1007300008955058BB27AA270E94B1030C94FB04CC
:100740000E94ED0438F00E94F40420F039F49F3F39
:1007500019F426F40C94EA040EF4E095E7FB0C94EB
:10076000E404E92F0E940C0558F3BA1762077307D7
:100770008407950720F079F4A6F50C942E050EF465
:10078000E0950B2EBA2FA02D0B01B90190010C01A1
:10079000CA01A0011124FF27591B99F0593F50F4B9
:1007A000503E68F11A16F040A22F232F342F442711
:1007B000585FF3CF469537952795A795F040539509
:1007C000C9F77EF41F16BA0B620B730B840BBAF0D9
:1007D0009150A1F0FF0FBB1F661F771F881FC2F744
:1007E0000EC0BA0F621F731F841F48F48795779558
:1007F0006795B795F7959E3F08F0B0CF9395880F12
:1008000008F09927EE0F9795879508950E941A048E
:100810000C94FB040E94F40458F00E94ED0440F094
:1008200029F45F3F29F00C94E40451110C942F0536
:100830000C94EA040E940C0568F39923B1F3552344
:1008400091F3951B550BBB27AA27621773078407E3
:1008500038F09F5F5F4F220F331F441FAA1FA9F379
:1008600035D00E2E3AF0E0E832D091505040E69567
:10087000001CCAF72BD0FE2F29D0660F771F881FC8
:10088000BB1F261737074807AB07B0E809F0BB0BBB
:10089000802DBF01FF2793585F4F3AF09E3F5105CF
:1008A00078F00C94E4040C942F055F3FE4F3983E39
:1008B000D4F3869577956795B795F7959F5FC9F7B8
:1008C000880F911D9695879597F90895E1E0660F39
:1008D000771F881FBB1F621773078407BA0720F0B2
:1008E000621B730B840BBA0BEE1F88F7E09508951B
:1008F0000E94140588F09F5798F0B92F9927B75197
:10090000B0F0E1F0660F771F881F991F1AF0BA95B3
:10091000C9F714C0B13091F00E942E05B1E00895DE
:100920000C942E05672F782F8827B85F39F0B93FD0
:10093000CCF3869577956795B395D9F73EF4909566
:100940008095709561957F4F8F4F9F4F0895E894E4
:1009500009C097FB3EF490958095709561957F4F07
:100960008F4F9F4F9923A9F0F92F96E9BB279395B5
:10097000F695879577956795B795F111F8CFFAF4C5
:10098000BB0F11F460FF1BC06F5F7F4F8F4F9F4FF6
:1009900016C0882311F096E911C0772321F09EE854
:1009A000872F762F05C0662371F096E8862F70E0BA
:1009B00060E02AF09A95660F771F881FDAF7880F94
:1009C0009695879597F9089597F99F6780E870E065
:1009D00060E008959FEF80EC089500240A941616B5
:1009E000170618060906089500240A94121613061D
:1009F000140605060895092E0394000C11F48823AB
:100A000052F0BB0F40F4BF2B11F460FF04C06F5FC6
:100A10007F4F8F4F9F4F089557FD9058440F551F9C
:100A200059F05F3F71F04795880F97FB991F61F070
:100A30009F3F79F087950895121613061406551FE7
:100A4000F2CF4695F1DF08C0161617061806991F53
:100A5000F1CF86957105610508940895E894BB2748
:100A600066277727CB0197F908950E9448050C94D3
:100A7000FB040E94ED0438F00E94F40420F095235A
:100A800011F00C94E4040C94EA0411240C942F0546
:100A90000E940C0570F3959FC1F3950F50E0551F10
:100AA000629FF001729FBB27F00DB11D639FAA27C3
:100AB000F00DB11DAA1F649F6627B00DA11D661F12
:100AC000829F2227B00DA11D621F739FB00DA11D33
:100AD000621F839FA00D611D221F749F3327A00DED
:100AE000611D231F849F600D211D822F762F6A2F89
:100AF00011249F5750409AF0F1F088234AF0EE0FEE
:100B0000FF1FBB1F661F771F881F91505040A9F71A
:100B10009E3F510580F00C94E4040C942F055F3F38
:100B2000E4F3983ED4F3869577956795B795F79556
:100B3000E7959F5FC1F7FE2B880F911D96958795CE
:100B400097F90895AEE0B0E0E8EAF5E00C94730898
:100B500086E08C832B893C8929833A838FEF9FE73A
:100B60008D839E83AE01495E5F4F6D897E89CE0184
:100B700001960E94C605EF81F8852B893C89E20F1A
:100B8000F31F10822E96E2E00C948F08ABE0B0E0E9
:100B9000ECECF5E00C9466086C017B018A01FC0129
:100BA00016821782838181FFDFC13AE0532EF6015E
:100BB0002381F70123FD859123FF81917F01811519
:100BC00009F437C1853239F423FD959123FF9191C2
:100BD0007F01953229F4B60190E00E94CD07E7CF5E
:100BE00030E0912C612C712CF0E27F1640F59B32A5
:100BF000D9F058F49032D1F09332F1F09E3291F561
:100C000076FC17C1689476F806C09D3291F0903357
:100C1000C1F4689470F8F70123FD959123FF919139
:100C20007F019111E1CF28C0689471F8689472F83F
:100C3000F2CF689473F8EFCF689474F8ECCF77FC38
:100C40001BC080ED890F8A30C8F676FE05C0959CE2
:100C5000800D1124982EDFCF659C800D1124682E05
:100C60007F2AD9CF9C3619F4689477F8D4CF9C3476
:100C700009F445C0983679F2892F8F7D85548330E9
:100C800008F43FC0933609F461C0933709F46BC090
:100C9000933509F477C0943619F0993609F0A4C059
:100CA000F80177FE9AC061917191819191918F01C4
:100CB000272D2F76822E97FF04C00E945B08689430
:100CC00087F82AE030E05E014FEFA41AB40AA501CC
:100CD0000E94FD07782E7A1886FECFC0882D8E7F61
:100CE000791408F0C9C084FE1DC182FC11C12EEE2A
:100CF0008222B92C882D867809F4CBC00EC131E050
:100D00008ACF311501F1085F1F4F8FE3898321E0FE
:100D1000822E912C5E012FEFA21AB20AE89477F886
:100D200073FC03C086149104F0F18114910409F05E
:100D300041C0611409F43BCFB60180E290E00E940B
:100D4000CD076A94F6CF0C5F1F4FDFCFF80180818B
:100D500089830E5F1F4F91E0892E912C5E01FFEF7A
:100D6000AF1ABF0ADBCFF801A190B1908F01692DB6
:100D700070E076FC02C06FEF7FEFC5010E94C207F2
:100D80004C01CCCFF801A190B1908F01692D70E09A
:100D900076FC02C06FEF7FEFC5010E94B7074C01E0
:100DA000689477F8BDCFB60180E290E00E94CD074D
:100DB0006A94B8CFF50177FC859177FE81915F0148
:100DC000B60190E00E94CD0781E0611001C080E093
:100DD000681AF1E08F1A9108A8CF61917191872F5D
:100DE000880F880B982F63CF9537C9F4872CE89428
:100DF00084F82AE030E0F80187FE39C061917191F2
:100E0000819191918F015E01FFEFAF1ABF0AA50199
:100E10000E94FD07782E7A18E89487F85DCF872D19
:100E2000897F882E903799F058F49835A9F09F362D
:100E3000D9F0F601868197812B96EFE00C94820819
:100E40009837B9F774FC05C020E130E0D4CF68943E
:100E500084F8689482F8F8CF74FE03C0E72DE6604A
:100E60008E2E20E132E0C7CF28E030E0C4CF619180
:100E7000719180E090E0C6CF882EB72C84FE3ACFE7
:100E8000FE01E70DF11D8081803309F044C049EE79
:100E9000842283FC0EC080FE51C0972CB61418F437
:100EA000960C9B18B62C862D8B196B1408F480E0D9
:100EB000B80EB61408F044C06B1884FE43C0B601E7
:100EC00080E390E00E94CD0782FE09C088E590E0B3
:100ED00081FC02C088E790E0B6010E94CD0779143A
:100EE000E0F15E018FEFA81AB80A7A9482E0882EAA
:100EF000912C8C0E9D1E870C911CF40182914F0148
:100F0000B60190E00E94CD078A149B04B1F711CF7F
:100F1000B92C882EB5CF82FC02C0B394BACFB3945B
:100F2000B394B7CFB92C882EE5CEB60180E290E01D
:100F30000E94CD07A394A614C0F3B5CFAB2CFBCF72
:100F4000612CBBCF882D867851F280E281FC8BE248
:100F500087FC8DE2B60190E0C0CFB60180E390E05F
:100F60000E94CD079A94BBCF8FEF9FEF65CFFC0116
:100F70000590615070400110D8F7809590958E0FC4
:100F80009F1F0895FC016150704001900110D8F737
:100F9000809590958E0F9F1F08950F931F93CF9369
:100FA000DF93182F092FEB018B8181FD09C00FEF13
:100FB0001FEF812F902FDF91CF911F910F910895F7
:100FC00082FF14C02E813F818C819D8128173907B3
:100FD0003CF4E881F981CF010196888399831083DD
:100FE0008E819F8101968E839F83E3CFE885F9856B
:100FF000812F0995892BA1F3DACFFA01AA2728308E
:1010000051F1203181F1E8946F936E7F6E5F7F4FD5
:101010008F4F9F4FAF4FB1E03ED0B4E03CD0670F51
:10102000781F891F9A1FA11D680F791F8A1F911DA4
:10103000A11D6A0F711D811D911DA11D20D009F4F4
:1010400068943F912AE0269F11243019305D319336
:10105000DEF6CF010895462F4770405D4193B3E01F
:101060000FD0C9F7F6CF462F4F70405D4A3318F0C6
:10107000495D31FD4052419302D0A9F7EACFB4E077
:10108000A6959795879577956795BA95C9F700972F
:101090006105710508959B01AC010A2E06945795D0
:1010A000479537952795BA95C9F7620F731F841F27
:1010B000951FA01D089590958095709561957F4F1F
:1010C0008F4F9F4F08952F923F924F925F926F9252
:1010D0007F928F929F92AF92BF92CF92DF92EF92C8
:1010E000FF920F931F93CF93DF93CDB7DEB7CA1B49
:1010F000DB0B0FB6F894DEBF0FBECDBF09942A8874
:10110000398848885F846E847D848C849B84AA841B
:10111000B984C884DF80EE80FD800C811B81AA81A8
:10112000B981CE0FD11D0FB6F894DEBF0FBECDBF73
:08113000ED010895F894FFCFD2
:061138002564000D0A0011
:00000001FF
