:100000000C9434000C9451000C9451000C94510049
:100010000C9451000C9451000C9451000C949A05CE
:100020000C9451000C9451000C9451000C9451000C
:100030000C9451000C9451000C949B050C945100AD
:100040000C9451000C9451000C9451000C945100EC
:100050000C9451000C9451000C9451000C945100DC
:100060000C9451000C94510011241FBECFEFD8E026
:10007000DEBFCDBF11E0A0E0B1E0E4E9F7E102C0EE
:1000800005900D92A630B107D9F721E0A6E0B1E0C6
:1000900001C01D92A631B207E1F70E941D060C9423
:1000A000C80B0C940000CF93DF930F92CDB7DEB74F
:1000B0000E943E020E944C0260E070E089E20E94D1
:1000C000600280EC0E94B0020E94D8020E944C02A2
:1000D00061E070E089E20E9460020E94CE028983A2
:1000E0000E94D80281E099819E3E09F080E00F9045
:1000F000DF91CF9108959C016130710590F009F571
:1001000044E1429FC001439F900D112469E070E0DB
:100110000E94720669517C4F70938B0060938A0035
:10012000089544E1429FC001439F900D112469E06E
:1001300070E00E94720669517C4F70938900609351
:1001400088000895EF92FF920F931F93CF93DF9350
:100150008C01EB01BC0180E090E00E947B00BE01BD
:1001600080E090E00E947B002FEF83ED90E3215030
:1001700080409040E1F700C00000E12CF12CB80174
:10018000C7010E947B00BE01C7010E947B008FE96E
:100190009FE00197F1F700C000009FEFE91AF90A0C
:1001A00029E0E21627E0F20651F788E0E82E87E022
:1001B000F82EB801C7010E947B00BE01C7010E9452
:1001C0007B008FE99FE00197F1F700C0000091E00C
:1001D000E91AF10870F7B80180E090E00E947B0016
:1001E000BE0180E090E00E947B00B80188E097E0CB
:1001F0000E947B00BE0188E097E00E947B008FEFA9
:1002000093ED20E3815090402040E1F700C00000D2
:10021000B80180E090E00E947B00BE0180E090E0A9
:100220000E947B008FEF93ED20E3815090402040AF
:10023000E1F700C00000DF91CF911F910F91FF9077
:10024000EF9008950E943E020E944C02079729F009
:100250000E94D80280E090E0089560E070E082E5BE
:100260000E946002079729F00E94D80282E090E085
:10027000089580E40E94B002079729F00E94D802F6
:1002800083E090E0089580E00E94B0020797B1F704
:100290000E94D80285E090E00895EF92FF920F93BC
:1002A0001F93CF93DF93EC010E944C02079759F004
:1002B0000E94D80281E090E0DF91CF911F910F91D1
:1002C000FF90EF90089560E070E082E50E94600288
:1002D000079729F00E94D80282E090E0EDCF80E0FD
:1002E0000E94B002079729F00E94D80283E090E0B4
:1002F000E3CF0E944C020797D9F661E070E082E5F7
:100300000E946002079731F78E017E0185E0E80EBA
:10031000F11C0E94C402F80181938F01EE15FF05C4
:10032000C1F70E94CE028D830E94D80285E090E042
:10033000C3CFCF93DF93CDB7DEB728970FB6F8942E
:10034000DEBF0FBECDBF8F839887CE0101960E947E
:100350004D018981EF81F88580838A81818385E0E1
:1003600090E028960FB6F894DEBF0FBECDBFDF91A8
:10037000CF910895CF93DF93CDB7DEB728970FB60F
:10038000F894DEBF0FBECDBF8F839887CE01019654
:1003900026E0FC0111922A95E9F70E944D018E8119
:1003A0008370EF81F885808385E090E028960FB612
:1003B000F894DEBF0FBECDBFDF91CF91089582E0EC
:1003C0008093C0001092C50080E18093C40088E152
:1003D0008093C10086E08093C20008959091C00090
:1003E00095FFFCCF8093C60008958091C00087FDE3
:1003F00004C0809107018115C1F38091C600089562
:10040000CF93DF93EC018881811103C0DF91CF91FD
:10041000089521960E94EE01F6CF0F931F93CF937C
:10042000DF93CDB7DEB72A970FB6F894DEBF0FBEC5
:10043000CDBF9F938F9380E091E09F938F938E0128
:100440000F5F1F4F1F930F930E94D008C8010E9497
:10045000000283E091E00E9400020F900F900F9045
:100460000F900F900F902A960FB6F894DEBF0FBE34
:10047000CDBFDF91CF911F910F91089587B18F7CF0
:1004800087B91092B90088E48093B80084E0809323
:10049000BC0087E090E0089584EA8093BC008091DE
:1004A000BC0087FFFCCF8091B900887F883011F0B5
:1004B000803119F487E090E0089581E090E008959C
:1004C000880F862B8093BB0084E88093BC008091CA
:1004D000BC0087FFFCCF8091B900887F672B31F487
:1004E000883149F42D9A87E090E008958034D1F363
:1004F00084E090E0089585E090E008950F931F93C5
:10050000CF93DF938C01009711F0FC011082259AA4
:100510002D98C8E0D4E90E944C02079741F0D0938F
:10052000BC00CF5FC837B9F786E090E014C060E048
:1005300070E08C2F0E9460028730910581F724E9DA
:100540002093BC000115110511F0F801C08325B1FD
:1005500030E2232725B9DF91CF911F910F910895A4
:100560008093BB0084E88093BC008091BC0087FF2F
:10057000FCCF8091B900887F883219F083E090E049
:10058000089587E090E0089584EC8093BC0080910A
:10059000BC0087FFFCCF8091BB00089584E8809366
:1005A000BC008091BC0087FFFCCF8091BB00089508
:1005B00084E98093BC00089588E198E00FB6F89430
:1005C000A895809360000FBE90936000FFCF82E0FB
:1005D00084BD93E095BD99EF97BD16BC80936E00E6
:1005E000089585E480937C0087E880937A0082E018
:1005F0008093B00094E09093B10099EF9093B30092
:10060000809370001092B200089580917A00806407
:1006100080937A0080917A0084FFFCCF80917A00E9
:10062000806180937A00609178007091790080E019
:1006300090E00E94AF0726EF38E24CE950E40E94B8
:100640003D080E948007CB010895FF920F931F93EE
:10065000CF93DF93EC010CE710E0F80110820E94C9
:1006600005038A839B838FE39FE10197F1F700C025
:100670000000FF24F394F801F0820E9405038883B0
:1006800099838FE39FE10197F1F700C0000082E0BA
:10069000F80180830E9405038C839D838FE39FE193
:1006A0000197F1F700C0000083E0F80180830E9409
:1006B00005038E839F838FE39FE10197F1F700C0CD
:1006C000000084E0F80180830E94050388879987F1
:1006D0008FE39FE10197F1F700C00000F801F0827D
:1006E0000E9405038A879B878FE39FE10197F1F7BB
:1006F00000C00000DF91CF911F910F91FF900895EE
:10070000BC0180E090E00E94AF0720E030E04AE7C3
:1007100056E40E943D0820E030E44CE955E40E9494
:10072000070720E030E040E85FE30E949A060E945D
:100730008007CB0108958830D0F44AB121E030E041
:10074000B90101C0660F8A95EAF7862F962F90951A
:1007500094239AB99BB1962B9BB9909168009460B1
:100760009093680090916D00892B80936D0080E0DC
:1007700090E00895219A229A22EA209380002AE1AB
:100780002093810040ED57E0849F9001859F300DBC
:10079000949F300D1124215031093093870020930C
:1007A0008600109289001092880008959C01409163
:1007B000860050918700429FC001439F900D529F39
:1007C000900D112464E670E00E9472067093890017
:1007D000609388000895259A089585B190E289274D
:1007E00085B908952D9A08952D9808950F931F9314
:1007F0009C01E0910D01F0910E01CB0168EE7FEFBD
:100800000E9486066E0F7F1F70930E0160930D018C
:10081000E0910B01F0910C01C90168E170E00E94C8
:1008200086066E0F7F1F70930C0160930B011F9162
:100830000F910895FF920F931F93CF93DF93CDB73E
:10084000DEB728970FB6F894DEBF0FBECDBF10926B
:10085000090110920801109207010E94F5018C33E2
:1008600021F0809107018115C1F300910701011565
:10087000A1F000E0F12C20E030E0602F7F2D832FED
:10088000922F28960FB6F894DEBF0FBECDBFDF9132
:10089000CF911F910F91FF9008950E94F5018C3226
:1008A00061F090910701911108C00730B1F3FE018A
:1008B000E00FF11D81830F5FF0CF1091070111113F
:1008C000D8CFFE013196E00FF11D1082CE010196C6
:1008D0000E94AA08082FF92E0E94F5018E3369F0B4
:1008E00090910701911109C01730B1F3FE013196C3
:1008F000E10FF11D80831F5FEFCF80910701811110
:10090000B8CFFE013196E10FF11D1082CE010196A4
:100910000E94AA08382F292FB0CF90910F0191156E
:1009200089F110920F01811117C060910D01709132
:100930000E01872F880F880B982F0E94B10720EE99
:100940003EE245E652E40E949B060E9479077093BE
:100950000E0160930D01089560910B0170910C01DF
:10096000872F880F880B982F0E94B10720EE3EE258
:1009700045E652E40E949B060E94790770930C01A1
:1009800060930B0108950F931F93CF938C016630F2
:10099000710508F47CC0FC018581CC2781FFC395DB
:1009A000C093060180FD08C081E090E090931201A1
:1009B000809311010E94ED03CE5F20910B013091D5
:1009C0000C01F80181818058990B0C2E02C095957D
:1009D00087950A94E2F7820F931F90930C018093FE
:1009E0000B0180910B0190910C0197FF34C0109284
:1009F0000C0110920B0120910D0130910E01F801B4
:100A000080818058990B02C095958795CA95E2F729
:100A1000281B390B30930E0120930D0180910D019D
:100A200090910E0197FF25C010920E0110920D01BA
:100A300080910D0190910E0160E070E00E947B00BA
:100A400080910B0190910C0161E070E0CF911F91BA
:100A50000F910C947B0080910B0190910C018438D4
:100A600093404CF283E893E090930C0180930B0148
:100A7000C2CF80910D0190910E0188309740C4F251
:100A800087E097E090930E0180930D01D1CFCF9135
:100A90001F910F9108956630710508F44AC0FC015A
:100AA000858180FF06C010921201109211010E94F0
:100AB000ED0380910B0190910C0197FF1EC01092E5
:100AC0000C0110920B0180910D0190910E0197FF86
:100AD00022C010920E0110920D0180910D01909193
:100AE0000E0160E070E00E947B0080910B0190910C
:100AF0000C0161E070E00C947B0080910B019091FF
:100B00000C0184389340FCF283E893E090930C014D
:100B100080930B01D8CF80910D0190910E01883008
:100B20009740DCF287E097E090930E0180930D01EF
:100B3000D4CF089518951F920F920FB60F921124DB
:100B40002F933F934F935F936F937F938F939F93D5
:100B5000AF93BF93EF93FF93CF93DF9300D000D079
:100B600000D0CDB7DEB780911401909115010196A8
:100B7000883E23E0920708F052C0809314019093BE
:100B80001501809113018F5F843108F050C080936C
:100B900013018091110190911201019739F5809113
:100BA0000801909109010196909309018093080131
:100BB0008091080190910901883E9340B8F010920D
:100BC000090110920801CE0101960E944D0166E0D4
:100BD00070E0CE0101960E944B0580911101909129
:100BE0001201892B19F481E0809307010F900F9077
:100BF0000F900F900F900F90DF91CF91FF91EF9199
:100C0000BF91AF919F918F917F916F915F914F9124
:100C10003F912F910F900FBE0F901F90189510923B
:100C200014011092150181E080930F01AACF109258
:100C3000130181E080931001ACCF00D000D000D030
:100C4000CDB7DEB70E94EB030E94F2030E943E0282
:100C50000E942201059749F50E94DF010E94E702E8
:100C600084E190E00E94BA030E94F403789480919A
:100C7000110190911201009721F181309105E9F75E
:100C800080911001811599F3109210010E941A04AD
:100C90000E94F603CE0101960E944D0166E070E0CD
:100CA000CE0101960E944B05E2CF2FEF80E792E044
:100CB000215080409040E1F700C000000E94ED0309
:100CC000C7CF80911001811591F210921001CE01D1
:100CD00001960E944D0166E070E0CE0101960E94EF
:100CE000C304C5CFAA1BBB1B51E107C0AA1FBB1F72
:100CF000A617B70710F0A61BB70B881F991F5A95A8
:100D0000A9F780959095BC01CD01089597FB072E1A
:100D100016F4009407D077FD09D00E94720607FCF4
:100D200005D03EF4909581959F4F089570956195FB
:100D30007F4F08955058BB27AA270E94B2060C94F3
:100D400003080E94F50738F00E94FC0720F039F4F0
:100D50009F3F19F426F40C94F2070EF4E095E7FB9C
:100D60000C94EC07E92F0E94140858F3BA17620795
:100D700073078407950720F079F4A6F50C943608DC
:100D80000EF4E0950B2EBA2FA02D0B01B9019001A6
:100D90000C01CA01A0011124FF27591B99F0593FEA
:100DA00050F4503E68F11A16F040A22F232F342F32
:100DB0004427585FF3CF469537952795A795F04080
:100DC0005395C9F77EF41F16BA0B620B730B840B95
:100DD000BAF09150A1F0FF0FBB1F661F771F881F4D
:100DE000C2F70EC0BA0F621F731F841F48F48795A5
:100DF00077956795B795F7959E3F08F0B0CF939597
:100E0000880F08F09927EE0F9795879508950E940F
:100E10001B070C9403080E94FC0758F00E94F5077A
:100E200040F029F45F3F29F00C94EC0751110C9429
:100E300037080C94F2070E94140868F39923B1F361
:100E4000552391F3951B550BBB27AA2762177307F0
:100E5000840738F09F5F5F4F220F331F441FAA1F84
:100E6000A9F335D00E2E3AF0E0E832D09150504040
:100E7000E695001CCAF72BD0FE2F29D0660F771FEE
:100E8000881FBB1F261737074807AB07B0E809F0D4
:100E9000BB0B802DBF01FF2793585F4F3AF09E3F59
:100EA000510578F00C94EC070C9437085F3FE4F39D
:100EB000983ED4F3869577956795B795F7959F5F9C
:100EC000C9F7880F911D9695879597F90895E1E0E8
:100ED000660F771F881FBB1F621773078407BA0747
:100EE00020F0621B730B840BBA0BEE1F88F7E095A2
:100EF00008950E9480076894B1110C9437080895F2
:100F00000E941C0888F09F5798F0B92F9927B75175
:100F1000B0F0E1F0660F771F881F991F1AF0BA959D
:100F2000C9F714C0B13091F00E943608B1E00895BD
:100F30000C943608672F782F8827B85F39F0B93FAF
:100F4000CCF3869577956795B395D9F73EF4909550
:100F50008095709561957F4F8F4F9F4F0895E894CE
:100F600009C097FB3EF490958095709561957F4FF1
:100F70008F4F9F4F9923A9F0F92F96E9BB2793959F
:100F8000F695879577956795B795F111F8CFFAF4AF
:100F9000BB0F11F460FF1BC06F5F7F4F8F4F9F4FE0
:100FA00016C0882311F096E911C0772321F09EE83E
:100FB000872F762F05C0662371F096E8862F70E0A4
:100FC00060E02AF09A95660F771F881FDAF7880F7E
:100FD0009695879597F9089597F99F6780E870E04F
:100FE00060E008959FEF80EC089500240A9416169F
:100FF000170618060906089500240A941216130607
:10100000140605060895092E0394000C11F4882394
:1010100052F0BB0F40F4BF2B11F460FF04C06F5FB0
:101020007F4F8F4F9F4F089557FD9058440F551F86
:1010300059F05F3F71F04795880F97FB991F61F05A
:101040009F3F79F087950895121613061406551FD1
:10105000F2CF4695F1DF08C0161617061806991F3D
:10106000F1CF86957105610508940895E894BB2732
:1010700066277727CB0197F908950E9450080C94B2
:1010800003080E94F50738F00E94FC0720F0952322
:1010900011F00C94EC070C94F20711240C9437080F
:1010A0000E94140870F3959FC1F3950F50E0551FEF
:1010B000629FF001729FBB27F00DB11D639FAA27AD
:1010C000F00DB11DAA1F649F6627B00DA11D661FFC
:1010D000829F2227B00DA11D621F739FB00DA11D1D
:1010E000621F839FA00D611D221F749F3327A00DD7
:1010F000611D231F849F600D211D822F762F6A2F73
:1011000011249F5750409AF0F1F088234AF0EE0FD7
:10111000FF1FBB1F661F771F881F91505040A9F704
:101120009E3F510580F00C94EC070C9437085F3F0C
:10113000E4F3983ED4F3869577956795B795F79540
:10114000E7959F5FC1F7FE2B880F911D96958795B8
:1011500097F90895FC0188279927E8942191203276
:10116000E9F3293010F02E30C8F32B3241F02D3244
:1011700039F4689404C00E94C808820F911D21911F
:1011800020532A30C0F31EF4909581959F4F089507
:101190007AE0979F902D879F802D910D11240895BF
:1011A000AEE0B0E0E6EDF8E00C94A10B86E08C83B5
:1011B0002B893C8929833A838FEF9FE78D839E8318
:1011C000AE01495E5F4F6D897E89CE0101960E9416
:1011D000F408EF81F8852B893C89E20FF31F108218
:1011E0002E96E2E00C94BD0BABE0B0E0EAEFF8E045
:1011F0000C94940B6C017B018A01FC01168217820E
:10120000838181FFDFC13AE0532EF6012381F7018C
:1012100023FD859123FF81917F01811509F437C159
:10122000853239F423FD959123FF91917F01953209
:1012300029F4B60190E00E94FB0AE7CF30E0912C40
:10124000612C712CF0E27F1640F59B32D9F058F4F6
:101250009032D1F09332F1F09E3291F576FC17C1C5
:10126000689476F806C09D3291F09033C1F468948A
:1012700070F8F70123FD959123FF91917F01911162
:10128000E1CF28C0689471F8689472F8F2CF68943E
:1012900073F8EFCF689474F8ECCF77FC1BC080ED47
:1012A000890F8A30C8F676FE05C0959C800D112402
:1012B000982EDFCF659C800D1124682E7F2AD9CF10
:1012C0009C3619F4689477F8D4CF9C3409F445C05F
:1012D000983679F2892F8F7D8554833008F43FC08A
:1012E000933609F461C0933709F46BC0933509F460
:1012F00077C0943619F0993609F0A4C0F80177FE4A
:101300009AC061917191819191918F01272D2F76D2
:10131000822E97FF04C00E94890B689487F82AE008
:1013200030E05E014FEFA41AB40AA5010E942B0B16
:10133000782E7A1886FECFC0882D8E7F791408F01B
:10134000C9C084FE1DC182FC11C12EEE8222B92CBF
:10135000882D867809F4CBC00EC131E08ACF3115D3
:1013600001F1085F1F4F8FE3898321E0822E912CCA
:101370005E012FEFA21AB20AE89477F873FC03C05B
:1013800086149104F0F18114910409F041C06114B4
:1013900009F43BCFB60180E290E00E94FB0A6A9418
:1013A000F6CF0C5F1F4FDFCFF801808189830E5F7E
:1013B0001F4F91E0892E912C5E01FFEFAF1ABF0AFB
:1013C000DBCFF801A190B1908F01692D70E076FC20
:1013D00002C06FEF7FEFC5010E94F00A4C01CCCF35
:1013E000F801A190B1908F01692D70E076FC02C0E8
:1013F0006FEF7FEFC5010E94E50A4C01689477F812
:10140000BDCFB60180E290E00E94FB0A6A94B8CF9B
:10141000F50177FC859177FE81915F01B60190E03F
:101420000E94FB0A81E0611001C080E0681AF1E0CF
:101430008F1A9108A8CF61917191872F880F880B1F
:10144000982F63CF9537C9F4872CE89484F82AE065
:1014500030E0F80187FE39C06191719181919191DD
:101460008F015E01FFEFAF1ABF0AA5010E942B0B8F
:10147000782E7A18E89487F85DCF872D897F882E9B
:10148000903799F058F49835A9F09F36D9F0F601C5
:10149000868197812B96EFE00C94B00B9837B9F7C3
:1014A00074FC05C020E130E0D4CF689484F86894DF
:1014B00082F8F8CF74FE03C0E72DE6608E2E20E19F
:1014C00032E0C7CF28E030E0C4CF6191719180E075
:1014D00090E0C6CF882EB72C84FE3ACFFE01E70DF0
:1014E000F11D8081803309F044C049EE842283FCE1
:1014F0000EC080FE51C0972CB61418F4960C9B18A1
:10150000B62C862D8B196B1408F480E0B80EB61437
:1015100008F044C06B1884FE43C0B60180E390E03D
:101520000E94FB0A82FE09C088E590E081FC02C0AF
:1015300088E790E0B6010E94FB0A7914E0F15E01B1
:101540008FEFA81AB80A7A9482E0882E912C8C0E1C
:101550009D1E870C911CF40182914F01B60190E011
:101560000E94FB0A8A149B04B1F711CFB92C882E74
:10157000B5CF82FC02C0B394BACFB394B394B7CFC3
:10158000B92C882EE5CEB60180E290E00E94FB0ADD
:10159000A394A614C0F3B5CFAB2CFBCF612CBBCF6B
:1015A000882D867851F280E281FC8BE287FC8DE207
:1015B000B60190E0C0CFB60180E390E00E94FB0A44
:1015C0009A94BBCF8FEF9FEF65CFFC0105906150E0
:1015D00070400110D8F7809590958E0F9F1F089549
:1015E000FC016150704001900110D8F780959095F2
:1015F0008E0F9F1F08950F931F93CF93DF93182F84
:10160000092FEB018B8181FD09C00FEF1FEF812FA7
:10161000902FDF91CF911F910F91089582FF14C0F9
:101620002E813F818C819D81281739073CF4E88108
:10163000F981CF0101968883998310838E819F81E0
:1016400001968E839F83E3CFE885F985812F0995E5
:10165000892BA1F3DACFFA01AA27283051F12031E2
:1016600081F1E8946F936E7F6E5F7F4F8F4F9F4F36
:10167000AF4FB1E03ED0B4E03CD0670F781F891F78
:101680009A1FA11D680F791F8A1F911DA11D6A0F46
:10169000711D811D911DA11D20D009F468943F91F9
:1016A0002AE0269F11243019305D3193DEF6CF01F8
:1016B0000895462F4770405D4193B3E00FD0C9F7BE
:1016C000F6CF462F4F70405D4A3318F0495D31FD2B
:1016D0004052419302D0A9F7EACFB4E0A69597957E
:1016E000879577956795BA95C9F700976105710554
:1016F00008959B01AC010A2E06945795479537959E
:101700002795BA95C9F7620F731F841F951FA01DF7
:10171000089590958095709561957F4F8F4F9F4F5D
:1017200008952F923F924F925F926F927F928F9285
:101730009F92AF92BF92CF92DF92EF92FF920F9360
:101740001F93CF93DF93CDB7DEB7CA1BDB0B0FB66A
:10175000F894DEBF0FBECDBF09942A883988488827
:101760005F846E847D848C849B84AA84B984C884BD
:10177000DF80EE80FD800C811B81AA81B981CE0FB4
:10178000D11D0FB6F894DEBF0FBECDBFED01089599
:04179000F894FFCFFB
:061794002564000D0A00AF
:00000001FF
