:100000000C9434000C9449000C94C0020C944900E8
:100010000C9449000C94B3020C9449000C94A9026E
:100020000C9449000C9449000C9449000C9449002C
:100030000C9449000C9449000C94CA020C94490099
:100040000C9449000C9449000C9449000C9449000C
:100050000C9449000C9449000C9449000C944900FC
:100060000C9449000C94490011241FBECFEFD8E036
:10007000DEBFCDBF11E0A0E0B1E0EEEFFFE002C0D7
:1000800005900D92A630B107D9F70E94D4020C94C6
:10009000FD070C94000085E480937C0087E8809342
:1000A0007A0082E08093B00094E09093B10099EFE1
:1000B0009093B300809370001092B20008958091E5
:1000C0007A00806480937A0080917A0084FFFCCF6C
:1000D00080917A00806180937A00609178007091BD
:1000E000790080E090E00E94190426EF38E24CE9A4
:1000F00050E40E94A7040E94EA03CB010895FF92F6
:100100000F931F93CF93DF93EC010CE710E0F801FE
:1001100010820E945F009B838A838FE39FE1019797
:10012000F1F700C00000FF24F394F801F0820E9470
:100130005F00998388838FE39FE10197F1F700C007
:10014000000082E0F80180830E945F009D838C8321
:100150008FE39FE10197F1F700C0000083E0F80111
:1001600080830E945F009F838E838FE39FE10197CE
:10017000F1F700C0000084E0F80180830E945F0076
:10018000998788878FE39FE10197F1F700C000000E
:10019000F801F0820E945F009B878A878FE39FE1CE
:1001A0000197F1F700C00000DF91CF911F910F91EF
:1001B000FF900895BC0180E090E00E94190420E0C7
:1001C00030E04AE756E40E94A70420E030E44CE91E
:1001D00055E40E94780320E030E040E85FE30E94AD
:1001E0000B030E94EA03CB0108958830D8F44AB18A
:1001F00021E030E0B90102C0660F771F8A95E2F76F
:10020000CB01962F909594239AB99BB1982B9BB9CB
:100210009091680094609093680090916D00892B94
:1002200080936D0080E090E00895219A229A22EA5E
:10023000209380002AE12093810040ED57E0849FC5
:100240009001859F300D949F300D1124215031096C
:1002500030938700209386001092890010928800C6
:1002600008959C014091860050918700429FC001F3
:10027000439F900D529F900D112464E670E00E9400
:10028000F70270938900609388000895209A08957A
:100290001092C50087E68093C40088E18093C10076
:1002A00086E08093C20008959091C00095FFFCCF36
:1002B0008093C60008958091C00087FFFCCF809195
:1002C000C6000895CF93DF93EC018991811103C09B
:1002D000DF91CF9108950E945401F7CF0F931F93A0
:1002E000CF93DF93CDB7DEB72A970FB6F894DEBF72
:1002F0000FBECDBF9F938F9380E091E09F938F932C
:100300008E010F5F1F4F1F930F930E941405C801AA
:100310000E94620183E091E00E9462012FEF89E672
:1003200098E1215080409040E1F700C000000F901C
:100330000F900F900F900F900F902A960FB6F89491
:10034000DEBF0FBECDBFDF91CF911F910F910895FA
:1003500087B18F7C87B91092B9008FEF8093B80076
:1003600084E08093BC00089584EA8093BC0080916F
:10037000BC0087FFFCCF8091B900887F883019F4DA
:1003800083E090E0089580E090E00895880F862B48
:100390008093BB0084E88093BC008091BC0087FF01
:1003A000FCCF08958093BB0084E88093BC008091CB
:1003B000BC0087FFFCCF089584EC8093BC00809143
:1003C000BC0087FFFCCF8091BB00089584E8809338
:1003D000BC008091BC0087FFFCCF8091BB000895DA
:1003E00084E98093BC000895089521E0FC012083F6
:1003F00008959C01CB01892BA1F06130710509F5AD
:1004000044E1429FC001439F900D112469E070E0D8
:100410000E94F70269517C4F70938B0060938A00B1
:10042000089544E1429FC001439F900D112469E06B
:1004300070E00E94F70269517C4F709389006093CD
:1004400088000895EF92FF920F931F93CF93DF934D
:100450008C01D62FC72FBC0180E090E00E94F901EB
:100460006D2F7C2F80E090E00E94F9012FEF83ED4B
:1004700090E3215080409040E1F700C00000E12C63
:10048000F12CB801C7010E94F9016D2F7C2FC70123
:100490000E94F9018FE99FE00197F1F700C0000089
:1004A0009FEFE91AF90A29E0E21627E0F20649F778
:1004B00088E0E82E87E0F82EB801C7010E94F90114
:1004C0006D2F7C2FC7010E94F9018FE99FE00197F2
:1004D000F1F700C0000091E0E91AF10868F7B801EF
:1004E00080E090E00E94F9016D2F7C2F80E090E089
:1004F0000E94F901B80188E097E00E94F9016D2F90
:100500007C2F88E097E00E94F9018FEF93ED20E3C4
:10051000815090402040E1F700C00000B80180E029
:1005200090E00E94F9016D2F7C2F80E090E00E9406
:10053000F9018FEF93ED20E3815090402040E1F7E7
:1005400000C00000DF91CF911F910F91FF90EF90BD
:1005500008951F920F920FB60F9211240F900FBEA5
:100560000F901F9018951F920F920FB60F921124A3
:100570008F9389B18F910F900FBE0F901F90189598
:100580001F920F920FB60F9211240F900FBE0F9073
:100590001F9018951F920F920FB60F9211240F9073
:1005A0000FBE0F901F9018950E94A8010E9446014F
:1005B0007894C1E00E94B40161E070E082E50E949D
:1005C000C60185B18C2785B92FEF83ED90E32150CB
:1005D00080409040E1F700C000002FEF8BE792E9E8
:1005E000215080409040E1F700C00000E3CFAA1BFB
:1005F000BB1B51E107C0AA1FBB1FA617B70710F00E
:10060000A61BB70B881F991F5A95A9F7809590953F
:10061000BC01CD0108955058BB27AA270E9423038F
:100620000C946D040E945F0438F00E94660420F070
:1006300039F49F3F19F426F40C945C040EF4E09511
:10064000E7FB0C945604E92F0E947E0458F3BA1776
:10065000620773078407950720F079F4A6F50C94D8
:10066000A0040EF4E0950B2EBA2FA02D0B01B901BA
:1006700090010C01CA01A0011124FF27591B99F018
:10068000593F50F4503E68F11A16F040A22F232F24
:10069000342F4427585FF3CF469537952795A79574
:1006A000F0405395C9F77EF41F16BA0B620B730B1B
:1006B000840BBAF09150A1F0FF0FBB1F661F771F8C
:1006C000881FC2F70EC0BA0F621F731F841F48F441
:1006D000879577956795B795F7959E3F08F0B0CFCA
:1006E0009395880F08F09927EE0F979587950895B1
:1006F0000E948C030C946D040E94660458F00E94C2
:100700005F0440F029F45F3F29F00C945604511126
:100710000C94A1040C945C040E947E0468F3992359
:10072000B1F3552391F3951B550BBB27AA276217ED
:100730007307840738F09F5F5F4F220F331F441FFA
:10074000AA1FA9F335D00E2E3AF0E0E832D091502E
:100750005040E695001CCAF72BD0FE2F29D0660F1B
:10076000771F881FBB1F261737074807AB07B0E85E
:1007700009F0BB0B802DBF01FF2793585F4F3AF064
:100780009E3F510578F00C9456040C94A1045F3FF1
:10079000E4F3983ED4F3869577956795B795F795EA
:1007A0009F5FC9F7880F911D9695879597F90895D2
:1007B000E1E0660F771F881FBB1F6217730784076E
:1007C000BA0720F0621B730B840BBA0BEE1F88F77D
:1007D000E09508950E94860488F09F5798F0B92FFD
:1007E0009927B751B0F0E1F0660F771F881F991F66
:1007F0001AF0BA95C9F714C0B13091F00E94A00464
:10080000B1E008950C94A004672F782F8827B85F73
:1008100039F0B93FCCF3869577956795B395D9F7BD
:100820003EF490958095709561957F4F8F4F9F4FC7
:100830000895E89409C097FB3EF4909580957095D3
:1008400061957F4F8F4F9F4F9923A9F0F92F96E91C
:10085000BB279395F695879577956795B795F11191
:10086000F8CFFAF4BB0F11F460FF1BC06F5F7F4F2E
:100870008F4F9F4F16C0882311F096E911C0772340
:1008800021F09EE8872F762F05C0662371F096E849
:10089000862F70E060E02AF09A95660F771F881F18
:1008A000DAF7880F9695879597F9089597F99F67D6
:1008B00080E870E060E008959FEF80EC08950024E8
:1008C0000A941616170618060906089500240A94B5
:1008D00012161306140605060895092E0394000C3B
:1008E00011F4882352F0BB0F40F4BF2B11F460FFCA
:1008F00004C06F5F7F4F8F4F9F4F089557FD9058F3
:10090000440F551F59F05F3F71F04795880F97FBD3
:10091000991F61F09F3F79F087950895121613068D
:100920001406551FF2CF4695F1DF08C016161706BC
:100930001806991FF1CF86957105610508940895F1
:10094000E894BB2766277727CB0197F908950E9483
:10095000BA040C946D040E945F0438F00E9466048F
:1009600020F0952311F00C9456040C945C0411248F
:100970000C94A1040E947E0470F3959FC1F3950F1F
:1009800050E0551F629FF001729FBB27F00DB11D13
:10099000639FAA27F00DB11DAA1F649F6627B00DA3
:1009A000A11D661F829F2227B00DA11D621F739F8C
:1009B000B00DA11D621F839FA00D611D221F749F9A
:1009C0003327A00D611D231F849F600D211D822FE1
:1009D000762F6A2F11249F5750409AF0F1F0882308
:1009E0004AF0EE0FFF1FBB1F661F771F881F915035
:1009F0005040A9F79E3F510580F00C9456040C948A
:100A0000A1045F3FE4F3983ED4F38695779567950C
:100A1000B795F795E7959F5FC1F7FE2B880F911D5E
:100A20009695879597F90895AEE0B0E0EAE1F5E094
:100A30000C94D4070D891E8986E08C831A83098360
:100A40008FEF9FE79E838D83AE01475E5F4F6F8977
:100A5000788DCE0101960E9437052F813885020FCF
:100A6000131FF80110822E96E4E00C94F007ABE01F
:100A7000B0E0EDE3F5E00C94C9076C017B018A015D
:100A8000FC0117821682838181FFD9C19AE0592E19
:100A9000F6012381F70123FD859123FF81917F01D9
:100AA000811509F41FC1853239F423FD959123FF87
:100AB00091917F01953229F4B60190E00E943807A8
:100AC000E7CF30E0912C612C712CF0E27F1640F5DD
:100AD0009B32D9F058F49032D1F09332F1F09E323B
:100AE00099F576FCFFC0689476F806C09D3291F0C7
:100AF0009033C1F4689470F8F70123FD959123FFBA
:100B000091917F019111E1CF29C0689471F86894A7
:100B100072F8F2CF689473F8EFCF689474F8ECCF62
:100B200077FC1CC080ED890F8A30C8F676FE05C0C0
:100B3000959C800D1124982EDFCF659C800D11248B
:100B4000682E689475F8D8CF9C3619F4689477F8B5
:100B5000D3CF9C3409F44BC0983671F2892F8F7D26
:100B60008554833008F445C0933609F466C0933742
:100B700009F469C0933509F475C0943619F09936B3
:100B800009F09FC0F80177FE95C061917191819144
:100B900091918F01272D2F76822E97FF09C0909576
:100BA0008095709561957F4F8F4F9F4F689487F820
:100BB0002AE030E0AE014F5F5F4F5A010E946807A4
:100BC0008A19A82E86FEC4C0882D8E7FA91408F02D
:100BD000BEC084FE11C182FC05C1F82DFE7E8F2EA1
:100BE000B92C882D8678811509F4BFC000C131E089
:100BF00083CF3115F9F0085F1F4F8FE38983882475
:100C00008394912CAE014F5F5F4F5A01E89477F8BF
:100C100073FC03C086149104B0F181149104D1F5E2
:100C2000611409F435CFB60180E290E00E943807E4
:100C30006A94F6CF0C5F1F4FE0CFF8018081898363
:100C40000E5F1F4FDCCFF801A190B1908F01692D8D
:100C500070E076FC02C06FEF7FEFC5010E942D07A8
:100C60004C01D4CFF801A190B1908F01692D70E0B3
:100C700076FC02C06FEF7FEFC5010E9422074C0196
:100C8000689477F8C5CFB60180E290E00E943807FB
:100C90006A94C0CFF50177FC859177FE81915F0161
:100CA000B60190E00E94380761106A94F1E08F1A53
:100CB0009108B3CF61917191072E000C880B990BAD
:100CC00068CF872CE89484F82AE030E0953739F132
:100CD000572D597F852E903799F058F49835A9F003
:100CE0009F36D9F0F601868197812B96EFE00C9420
:100CF000E5079837B9F774FC05C020E130E00FC074
:100D0000689484F8689482F8F8CF74FE03C0872D45
:100D10008660882E20E132E002C028E030E0F80151
:100D200087FE10C061917191819191918F01FE01B7
:100D300031965F01AF010E9468078A19A82EE894D6
:100D400087F840CF6191719180E090E0EFCF882EDD
:100D5000BA2C84FE46CFFE01EA0DF11D808180335E
:100D600009F043C0282D297E822E83FC0EC080FE10
:100D70004FC09A2CB61418F4960C9B18B62C862DDE
:100D80008B196B1408F480E0B80EB61408F042C05A
:100D90006B1884FE41C0B60180E390E00E943807E2
:100DA00082FE09C088E590E081FC02C088E790E0FF
:100DB000B6010E943807A914D8F1AA94B12C4FEFBC
:100DC000A41AB40ACE0101964C01A80EB91EF50171
:100DD00082915F01B60190E00E9438078A149B045B
:100DE000B1F71ECFB92C882EB6CF82FC02C0B394C7
:100DF000BCCFB394B394B9CFB92C882EF2CEB60140
:100E000080E290E00E94380773947614C0F3B7CF65
:100E10007B2CFBCF612CBDCF882D8678811559F2B4
:100E200080E281FC8BE287FC8DE2B60190E0C1CFCD
:100E3000B60180E390E00E9438079A94BCCF8FEF10
:100E40009FEF53CFFC010590615070400110D8F71F
:100E5000809590958E0F9F1F0895FC016150704002
:100E600001900110D8F7809590958E0F9F1F0895DF
:100E70000F931F93CF93DF93182F092FEB018B81D3
:100E800081FD09C01FEF0FEF812F902FDF91CF91D0
:100E90001F910F91089582FF14C02E813F818C8194
:100EA0009D81281739073CF4E881F981CF0101962B
:100EB0009983888310838E819F8101969F838E837F
:100EC000E3CFE885F985812F0995892BA1F3DACF46
:100ED000FA01AA27283051F1203181F1E8946F936B
:100EE0006E7F6E5F7F4F8F4F9F4FAF4FB1E03ED011
:100EF000B4E03CD0670F781F891F9A1FA11D680FAF
:100F0000791F8A1F911DA11D6A0F711D811D911DE1
:100F1000A11D20D009F468943F912AE0269F112456
:100F20003019305D3193DEF6CF010895462F4770BA
:100F3000405D4193B3E00FD0C9F7F6CF462F4F7015
:100F4000405D4A3318F0495D31FD4052419302D073
:100F5000A9F7EACFB4E0A695979587957795679519
:100F6000BA95C9F700976105710508959B01AC0119
:100F70000A2E06945795479537952795BA95C9F740
:100F8000620F731F841F951FA01D08952F923F921B
:100F90004F925F926F927F928F929F92AF92BF9289
:100FA000CF92DF92EF92FF920F931F93CF93DF9335
:100FB000CDB7DEB7CA1BDB0B0FB6F894DEBF0FBE92
:100FC000CDBF09942A88398848885F846E847D84DF
:100FD0008C849B84AA84B984C884DF80EE80FD80E1
:100FE0000C811B81AA81B981CE0FD11D0FB6F89457
:0E0FF000DEBF0FBECDBFED010895F894FFCF18
:060FFE002564000D0A004D
:00000001FF
